:020000020000FC
:100000000FEF0DBF08E00EBF00E007B90FEF08B912
:100010000FEF04B900E005B91FEF20E00FEF0AB9B8
:1000200000E00BB940E006B11017E9F30E9445006B
:1000300006B11017C1F3102F02FF0E94290003FF21
:100040000E94320004FF0E94370005FF0E9440001A
:10005000EACF2395203111F025B9089520E00895C5
:100060002FE008952030E1F32A9525B908954395AE
:10007000403111F045B9089540E008954FE00895EA
:100080004030E1F34A9545B908953FEF3A95303055
:10009000E9F73FEF3A953030E9F73FEF3A953030E6
:0400A000E9F70895DF
:00000001FF
